{
  "contractName": "FightClubGameNft",
  "abi": [
    {
      "inputs": [
        {
          "internalType": "address",
          "name": "_tokenAddress",
          "type": "address"
        },
        {
          "internalType": "string",
          "name": "_baseUri",
          "type": "string"
        }
      ],
      "stateMutability": "nonpayable",
      "type": "constructor"
    },
    {
      "anonymous": false,
      "inputs": [
        {
          "indexed": true,
          "internalType": "address",
          "name": "account",
          "type": "address"
        },
        {
          "indexed": true,
          "internalType": "address",
          "name": "operator",
          "type": "address"
        },
        {
          "indexed": false,
          "internalType": "bool",
          "name": "approved",
          "type": "bool"
        }
      ],
      "name": "ApprovalForAll",
      "type": "event"
    },
    {
      "anonymous": false,
      "inputs": [
        {
          "indexed": true,
          "internalType": "address",
          "name": "previousOwner",
          "type": "address"
        },
        {
          "indexed": true,
          "internalType": "address",
          "name": "newOwner",
          "type": "address"
        }
      ],
      "name": "OwnershipTransferred",
      "type": "event"
    },
    {
      "anonymous": false,
      "inputs": [
        {
          "indexed": true,
          "internalType": "address",
          "name": "operator",
          "type": "address"
        },
        {
          "indexed": true,
          "internalType": "address",
          "name": "from",
          "type": "address"
        },
        {
          "indexed": true,
          "internalType": "address",
          "name": "to",
          "type": "address"
        },
        {
          "indexed": false,
          "internalType": "uint256[]",
          "name": "ids",
          "type": "uint256[]"
        },
        {
          "indexed": false,
          "internalType": "uint256[]",
          "name": "values",
          "type": "uint256[]"
        }
      ],
      "name": "TransferBatch",
      "type": "event"
    },
    {
      "anonymous": false,
      "inputs": [
        {
          "indexed": true,
          "internalType": "address",
          "name": "operator",
          "type": "address"
        },
        {
          "indexed": true,
          "internalType": "address",
          "name": "from",
          "type": "address"
        },
        {
          "indexed": true,
          "internalType": "address",
          "name": "to",
          "type": "address"
        },
        {
          "indexed": false,
          "internalType": "uint256",
          "name": "id",
          "type": "uint256"
        },
        {
          "indexed": false,
          "internalType": "uint256",
          "name": "value",
          "type": "uint256"
        }
      ],
      "name": "TransferSingle",
      "type": "event"
    },
    {
      "anonymous": false,
      "inputs": [
        {
          "indexed": false,
          "internalType": "string",
          "name": "value",
          "type": "string"
        },
        {
          "indexed": true,
          "internalType": "uint256",
          "name": "id",
          "type": "uint256"
        }
      ],
      "name": "URI",
      "type": "event"
    },
    {
      "inputs": [],
      "name": "FCG",
      "outputs": [
        {
          "internalType": "contract IERC20",
          "name": "",
          "type": "address"
        }
      ],
      "stateMutability": "view",
      "type": "function",
      "constant": true
    },
    {
      "inputs": [],
      "name": "baseUri",
      "outputs": [
        {
          "internalType": "string",
          "name": "",
          "type": "string"
        }
      ],
      "stateMutability": "view",
      "type": "function",
      "constant": true
    },
    {
      "inputs": [
        {
          "internalType": "uint256",
          "name": "id",
          "type": "uint256"
        }
      ],
      "name": "exists",
      "outputs": [
        {
          "internalType": "bool",
          "name": "",
          "type": "bool"
        }
      ],
      "stateMutability": "view",
      "type": "function",
      "constant": true
    },
    {
      "inputs": [],
      "name": "flag",
      "outputs": [
        {
          "internalType": "bool",
          "name": "",
          "type": "bool"
        }
      ],
      "stateMutability": "view",
      "type": "function",
      "constant": true
    },
    {
      "inputs": [
        {
          "internalType": "address",
          "name": "account",
          "type": "address"
        },
        {
          "internalType": "address",
          "name": "operator",
          "type": "address"
        }
      ],
      "name": "isApprovedForAll",
      "outputs": [
        {
          "internalType": "bool",
          "name": "",
          "type": "bool"
        }
      ],
      "stateMutability": "view",
      "type": "function",
      "constant": true
    },
    {
      "inputs": [],
      "name": "owner",
      "outputs": [
        {
          "internalType": "address",
          "name": "",
          "type": "address"
        }
      ],
      "stateMutability": "view",
      "type": "function",
      "constant": true
    },
    {
      "inputs": [],
      "name": "renounceOwnership",
      "outputs": [],
      "stateMutability": "nonpayable",
      "type": "function"
    },
    {
      "inputs": [
        {
          "internalType": "address",
          "name": "from",
          "type": "address"
        },
        {
          "internalType": "address",
          "name": "to",
          "type": "address"
        },
        {
          "internalType": "uint256[]",
          "name": "ids",
          "type": "uint256[]"
        },
        {
          "internalType": "uint256[]",
          "name": "amounts",
          "type": "uint256[]"
        },
        {
          "internalType": "bytes",
          "name": "data",
          "type": "bytes"
        }
      ],
      "name": "safeBatchTransferFrom",
      "outputs": [],
      "stateMutability": "nonpayable",
      "type": "function"
    },
    {
      "inputs": [
        {
          "internalType": "address",
          "name": "from",
          "type": "address"
        },
        {
          "internalType": "address",
          "name": "to",
          "type": "address"
        },
        {
          "internalType": "uint256",
          "name": "id",
          "type": "uint256"
        },
        {
          "internalType": "uint256",
          "name": "amount",
          "type": "uint256"
        },
        {
          "internalType": "bytes",
          "name": "data",
          "type": "bytes"
        }
      ],
      "name": "safeTransferFrom",
      "outputs": [],
      "stateMutability": "nonpayable",
      "type": "function"
    },
    {
      "inputs": [
        {
          "internalType": "address",
          "name": "operator",
          "type": "address"
        },
        {
          "internalType": "bool",
          "name": "approved",
          "type": "bool"
        }
      ],
      "name": "setApprovalForAll",
      "outputs": [],
      "stateMutability": "nonpayable",
      "type": "function"
    },
    {
      "inputs": [
        {
          "internalType": "bytes4",
          "name": "interfaceId",
          "type": "bytes4"
        }
      ],
      "name": "supportsInterface",
      "outputs": [
        {
          "internalType": "bool",
          "name": "",
          "type": "bool"
        }
      ],
      "stateMutability": "view",
      "type": "function",
      "constant": true
    },
    {
      "inputs": [
        {
          "internalType": "uint256",
          "name": "id",
          "type": "uint256"
        }
      ],
      "name": "totalSupply",
      "outputs": [
        {
          "internalType": "uint256",
          "name": "",
          "type": "uint256"
        }
      ],
      "stateMutability": "view",
      "type": "function",
      "constant": true
    },
    {
      "inputs": [
        {
          "internalType": "address",
          "name": "newOwner",
          "type": "address"
        }
      ],
      "name": "transferOwnership",
      "outputs": [],
      "stateMutability": "nonpayable",
      "type": "function"
    },
    {
      "inputs": [
        {
          "internalType": "string",
          "name": "newuri",
          "type": "string"
        }
      ],
      "name": "setURI",
      "outputs": [
        {
          "internalType": "bool",
          "name": "",
          "type": "bool"
        }
      ],
      "stateMutability": "nonpayable",
      "type": "function"
    },
    {
      "inputs": [
        {
          "internalType": "uint256",
          "name": "_tokenId",
          "type": "uint256"
        }
      ],
      "name": "uri",
      "outputs": [
        {
          "internalType": "string",
          "name": "",
          "type": "string"
        }
      ],
      "stateMutability": "view",
      "type": "function",
      "constant": true
    },
    {
      "inputs": [
        {
          "internalType": "address",
          "name": "account",
          "type": "address"
        },
        {
          "internalType": "uint256",
          "name": "id",
          "type": "uint256"
        }
      ],
      "name": "balanceOf",
      "outputs": [
        {
          "internalType": "uint256",
          "name": "",
          "type": "uint256"
        }
      ],
      "stateMutability": "view",
      "type": "function",
      "constant": true
    },
    {
      "inputs": [
        {
          "internalType": "address",
          "name": "to",
          "type": "address"
        },
        {
          "internalType": "uint256",
          "name": "id",
          "type": "uint256"
        },
        {
          "internalType": "uint256",
          "name": "amount",
          "type": "uint256"
        }
      ],
      "name": "mintCharacter",
      "outputs": [
        {
          "internalType": "bool",
          "name": "",
          "type": "bool"
        }
      ],
      "stateMutability": "payable",
      "type": "function",
      "payable": true
    },
    {
      "inputs": [
        {
          "internalType": "address",
          "name": "to",
          "type": "address"
        },
        {
          "internalType": "uint256[]",
          "name": "ids",
          "type": "uint256[]"
        },
        {
          "internalType": "uint256[]",
          "name": "amounts",
          "type": "uint256[]"
        }
      ],
      "name": "mintCharacterBatch",
      "outputs": [
        {
          "internalType": "bool",
          "name": "",
          "type": "bool"
        }
      ],
      "stateMutability": "payable",
      "type": "function",
      "payable": true
    },
    {
      "inputs": [
        {
          "internalType": "address[]",
          "name": "accounts",
          "type": "address[]"
        },
        {
          "internalType": "uint256[]",
          "name": "ids",
          "type": "uint256[]"
        }
      ],
      "name": "balanceOfBatch",
      "outputs": [
        {
          "internalType": "uint256[]",
          "name": "",
          "type": "uint256[]"
        }
      ],
      "stateMutability": "view",
      "type": "function",
      "constant": true
    },
    {
      "inputs": [
        {
          "internalType": "uint256",
          "name": "_amount",
          "type": "uint256"
        }
      ],
      "name": "withdraw",
      "outputs": [],
      "stateMutability": "nonpayable",
      "type": "function"
    },
    {
      "inputs": [],
      "name": "getAllFighters",
      "outputs": [
        {
          "components": [
            {
              "internalType": "address",
              "name": "owner",
              "type": "address"
            },
            {
              "internalType": "uint256",
              "name": "id",
              "type": "uint256"
            },
            {
              "internalType": "uint256",
              "name": "amount",
              "type": "uint256"
            },
            {
              "internalType": "string",
              "name": "uri",
              "type": "string"
            }
          ],
          "internalType": "struct FightClubGameNft.Fighter[]",
          "name": "",
          "type": "tuple[]"
        }
      ],
      "stateMutability": "view",
      "type": "function",
      "constant": true
    },
    {
      "inputs": [
        {
          "internalType": "address",
          "name": "_owner",
          "type": "address"
        }
      ],
      "name": "getOwnerFighters",
      "outputs": [
        {
          "components": [
            {
              "internalType": "address",
              "name": "owner",
              "type": "address"
            },
            {
              "internalType": "uint256",
              "name": "id",
              "type": "uint256"
            },
            {
              "internalType": "uint256",
              "name": "amount",
              "type": "uint256"
            },
            {
              "internalType": "string",
              "name": "uri",
              "type": "string"
            }
          ],
          "internalType": "struct FightClubGameNft.Fighter[]",
          "name": "",
          "type": "tuple[]"
        }
      ],
      "stateMutability": "view",
      "type": "function",
      "constant": true
    }
  ],
  "bytecode": "0x670de0b6b3a764000060059081556101a060405260016080908152600260a052600360c052600460e052610100919091526006610120526007610140819052600861016052600961018081905262000058929062000193565b506009805460ff191690553480156200007057600080fd5b5060405162003eed38038062003eed83398101604081905262000093916200027c565b604080516020810190915260008152620000b68164010000000062000124810204565b50620000dd620000ce6401000000006200013d810204565b64010000000062000141810204565b8051620000f290600a906020840190620001e8565b5050600c8054600160a060020a03909216600160a060020a03199283168117909155600b8054909216179055620003fb565b805162000139906002906020840190620001e8565b5050565b3390565b60048054600160a060020a03838116600160a060020a0319831681179093556040519116919082907f8be0079c531659141344cd1fd0a4f28419497f9722a3daafe3b4186f6b6457e090600090a35050565b828054828255906000526020600020908101928215620001d6579160200282015b82811115620001d6578251829060ff16905591602001919060010190620001b4565b50620001e492915062000265565b5090565b828054620001f69062000376565b90600052602060002090601f0160209004810192826200021a5760008555620001d6565b82601f106200023557805160ff1916838001178555620001d6565b82800160010185558215620001d6579182015b82811115620001d657825182559160200191906001019062000248565b5b80821115620001e4576000815560010162000266565b600080604083850312156200028f578182fd5b8251600160a060020a0381168114620002a6578283fd5b8092505060208084015167ffffffffffffffff80821115620002c6578384fd5b818601915086601f830112620002da578384fd5b815181811115620002ef57620002ef620003cc565b604051601f8201601f19908116603f011681019083821181831017156200031a576200031a620003cc565b81604052828152898684870101111562000332578687fd5b8693505b8284101562000355578484018601518185018701529285019262000336565b828411156200036657868684830101525b8096505050505050509250929050565b6002810460018216806200038b57607f821691505b60208210811415620003c6577f4e487b7100000000000000000000000000000000000000000000000000000000600052602260045260246000fd5b50919050565b7f4e487b7100000000000000000000000000000000000000000000000000000000600052604160045260246000fd5b613ae2806200040b6000396000f3fe6080604052600436106101385760003560e060020a90048063890eba68116100af578063bd85b03911610073578063bd85b03914610352578063e985e9c514610372578063eb5fa89c14610392578063f242432a146103a7578063f275c2c6146103c7578063f2fde38b146103da57610138565b8063890eba68146102d15780638da5cb5b146102e65780639abc832014610308578063a096ff311461031d578063a22cb4651461033257610138565b80632eb2c2d6116101015780632eb2c2d61461020f5780634e1273f41461022f5780634f558e791461025c578063694360731461027c578063715018a61461028f578063739f61b1146102a457610138565b8062fdd58e1461013d57806301ffc9a71461017357806302fe5305146101a05780630e89341c146101c05780632e1a7d4d146101ed575b600080fd5b34801561014957600080fd5b5061015d610158366004612d27565b6103fa565b60405161016a919061381d565b60405180910390f35b34801561017f57600080fd5b5061019361018e366004612e67565b610456565b60405161016a9190613246565b3480156101ac57600080fd5b506101936101bb366004612e9f565b6104d0565b3480156101cc57600080fd5b506101e06101db366004612ee5565b610539565b60405161016a9190613251565b3480156101f957600080fd5b5061020d610208366004612ee5565b61056d565b005b34801561021b57600080fd5b5061020d61022a366004612b77565b61070a565b34801561023b57600080fd5b5061024f61024a366004612d82565b61076b565b60405161016a919061320e565b34801561026857600080fd5b50610193610277366004612ee5565b61089a565b61019361028a366004612c80565b6108ad565b34801561029b57600080fd5b5061020d610bb5565b3480156102b057600080fd5b506102c46102bf366004612b2b565b610c03565b60405161016a919061317d565b3480156102dd57600080fd5b50610193610e76565b3480156102f257600080fd5b506102fb610e7f565b60405161016a9190613071565b34801561031457600080fd5b506101e0610e8f565b34801561032957600080fd5b506102fb610f1d565b34801561033e57600080fd5b5061020d61034d366004612cf1565b610f2c565b34801561035e57600080fd5b5061015d61036d366004612ee5565b610f3e565b34801561037e57600080fd5b5061019361038d366004612b45565b610f50565b34801561039e57600080fd5b506102c4610f7e565b3480156103b357600080fd5b5061020d6103c2366004612c1d565b61109a565b6101936103d5366004612d50565b6110f4565b3480156103e657600080fd5b5061020d6103f5366004612b2b565b61137a565b6000600160a060020a03831661042e5760405160e560020a62461bcd0281526004016104259061337b565b60405180910390fd5b506000908152600660209081526040808320600160a060020a03949094168352929052205490565b6000600160e060020a031982167fd9b67a260000000000000000000000000000000000000000000000000000000014806104b95750600160e060020a031982167f0e89341c00000000000000000000000000000000000000000000000000000000145b806104c857506104c8826113f1565b90505b919050565b60006104da611423565b600160a060020a03166104eb610e7f565b600160a060020a0316146105145760405160e560020a62461bcd02815260040161042590613617565b61051d82611427565b815161053090600a906020850190612954565b50600192915050565b6060600a6105468361143a565b604051602001610557929190612fc0565b6040516020818303038152906040529050919050565b610575611423565b600160a060020a0316610586610e7f565b600160a060020a0316146105af5760405160e560020a62461bcd02815260040161042590613617565b600b546040517f70a082310000000000000000000000000000000000000000000000000000000081528291600160a060020a0316906370a08231906105f8903090600401613071565b60206040518083038186803b15801561061057600080fd5b505afa158015610624573d6000803e3d6000fd5b505050506040513d601f19601f820116820180604052508101906106489190612efd565b10156106695760405160e560020a62461bcd0281526004016104259061331e565b600b546040517fa9059cbb000000000000000000000000000000000000000000000000000000008152600160a060020a039091169063a9059cbb906106b49033908590600401613164565b602060405180830381600087803b1580156106ce57600080fd5b505af11580156106e2573d6000803e3d6000fd5b505050506040513d601f19601f820116820180604052508101906107069190612e4b565b5050565b610712611423565b600160a060020a031685600160a060020a0316148061073857506107388561038d611423565b6107575760405160e560020a62461bcd0281526004016104259061355d565b61076485858585856115b6565b5050505050565b606081518351146107915760405160e560020a62461bcd02815260040161042590613706565b6000835167ffffffffffffffff8111156107be5760e060020a634e487b7102600052604160045260246000fd5b6040519080825280602002602001820160405280156107e7578160200160208202803683370190505b50905060005b84518110156108925761085485828151811061081c5760e060020a634e487b7102600052603260045260246000fd5b60200260200101518583815181106108475760e060020a634e487b7102600052603260045260246000fd5b60200260200101516103fa565b8282815181106108775760e060020a634e487b7102600052603260045260246000fd5b602090810291909101015261088b81613961565b90506107ed565b509392505050565b6000806108a683610f3e565b1192915050565b6000600160a060020a0384166108d85760405160e560020a62461bcd028152600401610425906137c0565b60005b8251811015610b9e57600b546005548451600160a060020a039092169163095ea7b39130918790869081106109235760e060020a634e487b7102600052603260045260246000fd5b60200260200101516109359190613890565b6040518363ffffffff1660e060020a028152600401610955929190613164565b602060405180830381600087803b15801561096f57600080fd5b505af1158015610983573d6000803e3d6000fd5b505050506040513d601f19601f820116820180604052508101906109a79190612e4b565b6109c65760405160e560020a62461bcd028152600401610425906134c9565b6005548382815181106109ec5760e060020a634e487b7102600052603260045260246000fd5b60200260200101516109fe9190613890565b600b546040517fdd62ed3e000000000000000000000000000000000000000000000000000000008152600160a060020a039091169063dd62ed3e90610a499033903090600401613085565b60206040518083038186803b158015610a6157600080fd5b505afa158015610a75573d6000803e3d6000fd5b505050506040513d601f19601f82011682018060405250810190610a999190612efd565b1015610aba5760405160e560020a62461bcd02815260040161042590613492565b600b60009054906101000a9004600160a060020a0316600160a060020a03166323b872dd3330600554878681518110610b065760e060020a634e487b7102600052603260045260246000fd5b6020026020010151610b189190613890565b6040518463ffffffff1660e060020a028152600401610b39939291906130fd565b602060405180830381600087803b158015610b5357600080fd5b505af1158015610b67573d6000803e3d6000fd5b505050506040513d601f19601f82011682018060405250810190610b8b9190612e4b565b5080610b9681613961565b9150506108db565b50610baa8484846117a4565b506001949350505050565b610bbd611423565b600160a060020a0316610bce610e7f565b600160a060020a031614610bf75760405160e560020a62461bcd02815260040161042590613617565b610c016000611d81565b565b6060600060015b600754811015610c46576000610c2085836103fa565b1115610c3457610c31600183613864565b91505b80610c3e81613961565b915050610c0a565b5060008167ffffffffffffffff811115610c735760e060020a634e487b7102600052604160045260246000fd5b604051908082528060200260200182016040528015610cac57816020015b610c996129d8565b815260200190600190039081610c915790505b5090506000805b600d54811015610e6c5785600160a060020a0316600d8281548110610ceb5760e060020a634e487b7102600052603260045260246000fd5b6000918252602090912060049091020154600160a060020a03161415610e5a57600d8181548110610d2f5760e060020a634e487b7102600052603260045260246000fd5b90600052602060002090600402016040518060800160405290816000820160009054906101000a9004600160a060020a0316600160a060020a0316600160a060020a031681526020016001820154815260200160028201548152602001600382018054610d9b906138f6565b80601f0160208091040260200160405190810160405280929190818152602001828054610dc7906138f6565b8015610e145780601f10610de957610100808354040283529160200191610e14565b820191906000526020600020905b815481529060010190602001808311610df757829003601f168201915b505050505081525050838381518110610e405760e060020a634e487b7102600052603260045260246000fd5b60200260200101819052508180610e5690613961565b9250505b80610e6481613961565b915050610cb3565b5090949350505050565b60095460ff1681565b600454600160a060020a03165b90565b600a8054610e9c906138f6565b80601f0160208091040260200160405190810160405280929190818152602001828054610ec8906138f6565b8015610f155780601f10610eea57610100808354040283529160200191610f15565b820191906000526020600020905b815481529060010190602001808311610ef857829003601f168201915b505050505081565b600b54600160a060020a031681565b610706610f37611423565b8383611de0565b60009081526003602052604090205490565b600160a060020a03918216600090815260016020908152604080832093909416825291909152205460ff1690565b6060600d805480602002602001604051908101604052809291908181526020016000905b8282101561109157600084815260209081902060408051608081018252600486029092018054600160a060020a03168352600181015493830193909352600283015490820152600382018054919291606084019190611000906138f6565b80601f016020809104026020016040519081016040528092919081815260200182805461102c906138f6565b80156110795780601f1061104e57610100808354040283529160200191611079565b820191906000526020600020905b81548152906001019060200180831161105c57829003601f168201915b50505050508152505081526020019060010190610fa2565b50505050905090565b6110a2611423565b600160a060020a031685600160a060020a031614806110c857506110c88561038d611423565b6110e75760405160e560020a62461bcd02815260040161042590613435565b6107648585858585611e86565b6000600160a060020a03841661111f5760405160e560020a62461bcd028152600401610425906137c0565b600b54600554600160a060020a039091169063095ea7b39030906111439086613890565b6040518363ffffffff1660e060020a028152600401611163929190613164565b602060405180830381600087803b15801561117d57600080fd5b505af1158015611191573d6000803e3d6000fd5b505050506040513d601f19601f820116820180604052508101906111b59190612e4b565b6111d45760405160e560020a62461bcd028152600401610425906134c9565b600554600b546040517fdd62ed3e000000000000000000000000000000000000000000000000000000008152600160a060020a039091169063dd62ed3e906112229033903090600401613085565b60206040518083038186803b15801561123a57600080fd5b505afa15801561124e573d6000803e3d6000fd5b505050506040513d601f19601f820116820180604052508101906112729190612efd565b10156112935760405160e560020a62461bcd02815260040161042590613492565b600b54600554600160a060020a03909116906323b872dd90339030906112b99087613890565b6040518463ffffffff1660e060020a0281526004016112da939291906130fd565b602060405180830381600087803b1580156112f457600080fd5b505af1158015611308573d6000803e3d6000fd5b505050506040513d601f19601f8201168201806040525081019061132c9190612e4b565b50611338848484611fe9565b506000838152600660209081526040808320600160a060020a03881684529091528120805484929061136b908490613864565b90915550600195945050505050565b611382611423565b600160a060020a0316611393610e7f565b600160a060020a0316146113bc5760405160e560020a62461bcd02815260040161042590613617565b600160a060020a0381166113e55760405160e560020a62461bcd028152600401610425906133d8565b6113ee81611d81565b50565b600160e060020a031981167f01ffc9a70000000000000000000000000000000000000000000000000000000014919050565b3390565b8051610706906002906020840190612954565b60608161147b575060408051808201909152600181527f300000000000000000000000000000000000000000000000000000000000000060208201526104cb565b8160005b81156114a5578061148f81613961565b915061149e9050600a8361387c565b915061147f565b60008167ffffffffffffffff8111156114d15760e060020a634e487b7102600052604160045260246000fd5b6040519080825280601f01601f1916602001820160405280156114fb576020820181803683370190505b5090505b84156115ae576115106001836138af565b915061151d600a8661397c565b611528906030613864565b7f01000000000000000000000000000000000000000000000000000000000000000281838151811061156d5760e060020a634e487b7102600052603260045260246000fd5b60200101907effffffffffffffffffffffffffffffffffffffffffffffffffffffffffffff1916908160001a9053506115a7600a8661387c565b94506114ff565b949350505050565b81518351146115da5760405160e560020a62461bcd02815260040161042590613763565b600160a060020a0384166116035760405160e560020a62461bcd02815260040161042590613500565b600061160d611423565b905061161d818787878787612246565b60005b845181101561172857600085828151811061164e5760e060020a634e487b7102600052603260045260246000fd5b60200260200101519050600085838151811061167d5760e060020a634e487b7102600052603260045260246000fd5b60209081029190910181015160008481528083526040808220600160a060020a038e1683529093529190912054909150818110156116d05760405160e560020a62461bcd028152600401610425906135ba565b600083815260208181526040808320600160a060020a038e8116855292528083208585039055908b1682528120805484929061170d908490613864565b925050819055505050508061172190613961565b9050611620565b5084600160a060020a031686600160a060020a031682600160a060020a03167f4a39dc06d4c0dbc64b70af90fd698a233a518aa5d07e595d983b8c0526c8f7fb8787604051611778929190613221565b60405180910390a461178e81878787878761179c565b61179c8187878787876123dc565b505050505050565b6000806000905060008060006040518060200160405280600081525090506117dd8888886040518060200160405280600081525061253c565b600092505b8651831015611b1157600091505b600d548210156118ca5787600160a060020a0316600d83815481106118285760e060020a634e487b7102600052603260045260246000fd5b6000918252602090912060049091020154600160a060020a031614156118b85786838151811061186b5760e060020a634e487b7102600052603260045260246000fd5b6020026020010151600d83815481106118975760e060020a634e487b7102600052603260045260246000fd5b90600052602060002090600402016001015414156118b857600193506118ca565b816118c281613961565b9250506117f0565b6001841515141561194f578583815181106118f85760e060020a634e487b7102600052603260045260246000fd5b6020026020010151600d83815481106119245760e060020a634e487b7102600052603260045260246000fd5b906000526020600020906004020160020160008282546119449190613864565b90915550611aff9050565b6119828784815181106119755760e060020a634e487b7102600052603260045260246000fd5b6020026020010151610539565b9050600060405180608001604052808a600160a060020a031681526020018986815181106119c35760e060020a634e487b7102600052603260045260246000fd5b602002602001015181526020018886815181106119f35760e060020a634e487b7102600052603260045260246000fd5b6020908102919091018101518252908101849052600d805460018101825560009190915282517fd7b6990105719101dabeb77144f2a3385c8033acd3af97e9423a695e81ad1eb56004909202918201805473ffffffffffffffffffffffffffffffffffffffff1916600160a060020a03909216919091178155838301517fd7b6990105719101dabeb77144f2a3385c8033acd3af97e9423a695e81ad1eb683015560408401517fd7b6990105719101dabeb77144f2a3385c8033acd3af97e9423a695e81ad1eb78301556060840151805194955085949193611afa937fd7b6990105719101dabeb77144f2a3385c8033acd3af97e9423a695e81ad1eb80192910190612954565b505050505b82611b0981613961565b9350506117e2565b600092505b8651831015611d7357611b458784815181106119755760e060020a634e487b7102600052603260045260246000fd5b9050858381518110611b6a5760e060020a634e487b7102600052603260045260246000fd5b602002602001015160066000898681518110611b995760e060020a634e487b7102600052603260045260246000fd5b6020026020010151815260200190815260200160002060008a600160a060020a0316600160a060020a031681526020019081526020016000206000828254611be19190613864565b92505081905550600060405180608001604052808a600160a060020a03168152602001898681518110611c275760e060020a634e487b7102600052603260045260246000fd5b60200260200101518152602001888681518110611c575760e060020a634e487b7102600052603260045260246000fd5b6020908102919091018101518252908101849052600d805460018101825560009190915282517fd7b6990105719101dabeb77144f2a3385c8033acd3af97e9423a695e81ad1eb56004909202918201805473ffffffffffffffffffffffffffffffffffffffff1916600160a060020a03909216919091178155838301517fd7b6990105719101dabeb77144f2a3385c8033acd3af97e9423a695e81ad1eb683015560408401517fd7b6990105719101dabeb77144f2a3385c8033acd3af97e9423a695e81ad1eb78301556060840151805194955085949193611d5e937fd7b6990105719101dabeb77144f2a3385c8033acd3af97e9423a695e81ad1eb80192910190612954565b5050505082611d6c90613961565b9250611b16565b506001979650505050505050565b60048054600160a060020a0383811673ffffffffffffffffffffffffffffffffffffffff19831681179093556040519116919082907f8be0079c531659141344cd1fd0a4f28419497f9722a3daafe3b4186f6b6457e090600090a35050565b81600160a060020a031683600160a060020a03161415611e155760405160e560020a62461bcd028152600401610425906136a9565b600160a060020a0383811660008181526001602090815260408083209487168084529490915290819020805460ff1916851515179055517f17307eab39ab6107e8899845ad3d59bd9653f200f220920489ca2b5937696c3190611e79908590613246565b60405180910390a3505050565b600160a060020a038416611eaf5760405160e560020a62461bcd02815260040161042590613500565b6000611eb9611423565b90506000611ec6856126d8565b90506000611ed3856126d8565b9050611ee3838989858589612246565b600086815260208181526040808320600160a060020a038c16845290915290205485811015611f275760405160e560020a62461bcd028152600401610425906135ba565b600087815260208181526040808320600160a060020a038d8116855292528083208985039055908a16825281208054889290611f64908490613864565b9250508190555087600160a060020a031689600160a060020a031685600160a060020a03167fc3d58168c5ae7397731d063d5bbf3d657854427343f4c083240f7aacaa2d0f628a8a604051611fba929190613826565b60405180910390a4611fd0848a8a86868a61179c565b611fde848a8a8a8a8a612734565b505050505050505050565b60008060009050600061200d8686866040518060200160405280600081525061283a565b5060005b600d548110156120c15785600160a060020a0316600d82815481106120495760e060020a634e487b7102600052603260045260246000fd5b6000918252602090912060049091020154600160a060020a031614156120af5784600d828154811061208e5760e060020a634e487b7102600052603260045260246000fd5b90600052602060002090600402016001015414156120af57600191506120c1565b806120b981613961565b915050612011565b6001821515141561211c5783600d82815481106120f15760e060020a634e487b7102600052603260045260246000fd5b906000526020600020906004020160020160008282546121119190613864565b9091555061223a9050565b600061212786610539565b60408051608081018252600160a060020a038a8116825260208083018b81529383018a815260608401868152600d805460018101825560009190915285517fd7b6990105719101dabeb77144f2a3385c8033acd3af97e9423a695e81ad1eb56004909202918201805473ffffffffffffffffffffffffffffffffffffffff19169190961617855595517fd7b6990105719101dabeb77144f2a3385c8033acd3af97e9423a695e81ad1eb687015590517fd7b6990105719101dabeb77144f2a3385c8033acd3af97e9423a695e81ad1eb7860155518051959650929485949293612234937fd7b6990105719101dabeb77144f2a3385c8033acd3af97e9423a695e81ad1eb801920190612954565b50505050505b50600195945050505050565b61225486868686868661179c565b600160a060020a0385166122fd5760005b83518110156122fb578281815181106122915760e060020a634e487b7102600052603260045260246000fd5b6020026020010151600360008684815181106122c05760e060020a634e487b7102600052603260045260246000fd5b6020026020010151815260200190815260200160002060008282546122e59190613864565b909155506122f4905081613961565b9050612265565b505b600160a060020a03841661179c5760005b83518110156123d357600084828151811061233c5760e060020a634e487b7102600052603260045260246000fd5b60200260200101519050600084838151811061236b5760e060020a634e487b7102600052603260045260246000fd5b60200260200101519050600060036000848152602001908152602001600020549050818110156123b05760405160e560020a62461bcd0281526004016104259061364c565b600092835260036020526040909220910390556123cc81613961565b905061230e565b50505050505050565b6123ee84600160a060020a0316612945565b1561179c576040517fbc197c81000000000000000000000000000000000000000000000000000000008152600160a060020a0385169063bc197c8190612440908990899088908890889060040161309f565b602060405180830381600087803b15801561245a57600080fd5b505af192505050801561248a575060408051601f3d908101601f1916820190925261248791810190612e83565b60015b6124f0576124966139db565b806308c379a014156124d357506124ab6139f6565b806124b657506124d5565b8060405160e560020a62461bcd0281526004016104259190613251565b505b60405160e560020a62461bcd02815260040161042590613264565b600160e060020a031981167fbc197c8100000000000000000000000000000000000000000000000000000000146123d35760405160e560020a62461bcd028152600401610425906132c1565b600160a060020a0384166125655760405160e560020a62461bcd028152600401610425906137c0565b81518351146125895760405160e560020a62461bcd02815260040161042590613763565b6000612593611423565b90506125a481600087878787612246565b60005b8451811015612661578381815181106125d35760e060020a634e487b7102600052603260045260246000fd5b60200260200101516000808784815181106126015760e060020a634e487b7102600052603260045260246000fd5b60200260200101518152602001908152602001600020600088600160a060020a0316600160a060020a0316815260200190815260200160002060008282546126499190613864565b9091555081905061265981613961565b9150506125a7565b5084600160a060020a03166000600160a060020a031682600160a060020a03167f4a39dc06d4c0dbc64b70af90fd698a233a518aa5d07e595d983b8c0526c8f7fb87876040516126b2929190613221565b60405180910390a46126c98160008787878761179c565b610764816000878787876123dc565b604080516001808252818301909252606091600091906020808301908036833701905050905082816000815181106127235760e060020a634e487b7102600052603260045260246000fd5b602090810291909101015292915050565b61274684600160a060020a0316612945565b1561179c576040517ff23a6e61000000000000000000000000000000000000000000000000000000008152600160a060020a0385169063f23a6e61906127989089908990889088908890600401613121565b602060405180830381600087803b1580156127b257600080fd5b505af19250505080156127e2575060408051601f3d908101601f191682019092526127df91810190612e83565b60015b6127ee576124966139db565b600160e060020a031981167ff23a6e6100000000000000000000000000000000000000000000000000000000146123d35760405160e560020a62461bcd028152600401610425906132c1565b600160a060020a0384166128635760405160e560020a62461bcd028152600401610425906137c0565b600061286d611423565b9050600061287a856126d8565b90506000612887856126d8565b905061289883600089858589612246565b600086815260208181526040808320600160a060020a038b168452909152812080548792906128c8908490613864565b9250508190555086600160a060020a03166000600160a060020a031684600160a060020a03167fc3d58168c5ae7397731d063d5bbf3d657854427343f4c083240f7aacaa2d0f62898960405161291f929190613826565b60405180910390a46129368360008985858961179c565b6123d383600089898989612734565b600160a060020a03163b151590565b828054612960906138f6565b90600052602060002090601f01602090048101928261298257600085556129c8565b82601f1061299b57805160ff19168380011785556129c8565b828001600101855582156129c8579182015b828111156129c85782518255916020019190600101906129ad565b506129d4929150612a09565b5090565b60405180608001604052806000600160a060020a031681526020016000815260200160008152602001606081525090565b5b808211156129d45760008155600101612a0a565b600067ffffffffffffffff831115612a3857612a386139c2565b604051612a4f601f8501601f191660200182613934565b809150838152848484011115612a6457600080fd5b83836020830137600060208583010152509392505050565b8035600160a060020a03811681146104cb57600080fd5b600082601f830112612aa3578081fd5b81356020612ab082613834565b604051612abd8282613934565b838152828101915085830183850287018401881015612ada578586fd5b855b85811015612af857813584529284019290840190600101612adc565b5090979650505050505050565b600082601f830112612b15578081fd5b612b2483833560208501612a1e565b9392505050565b600060208284031215612b3c578081fd5b612b2482612a7c565b60008060408385031215612b57578081fd5b612b6083612a7c565b9150612b6e60208401612a7c565b90509250929050565b600080600080600060a08688031215612b8e578081fd5b612b9786612a7c565b9450612ba560208701612a7c565b9350604086013567ffffffffffffffff80821115612bc1578283fd5b612bcd89838a01612a93565b94506060880135915080821115612be2578283fd5b612bee89838a01612a93565b93506080880135915080821115612c03578283fd5b50612c1088828901612b05565b9150509295509295909350565b600080600080600060a08688031215612c34578081fd5b612c3d86612a7c565b9450612c4b60208701612a7c565b93506040860135925060608601359150608086013567ffffffffffffffff811115612c74578182fd5b612c1088828901612b05565b600080600060608486031215612c94578283fd5b612c9d84612a7c565b9250602084013567ffffffffffffffff80821115612cb9578384fd5b612cc587838801612a93565b93506040860135915080821115612cda578283fd5b50612ce786828701612a93565b9150509250925092565b60008060408385031215612d03578182fd5b612d0c83612a7c565b91506020830135612d1c81613a88565b809150509250929050565b60008060408385031215612d39578182fd5b612d4283612a7c565b946020939093013593505050565b600080600060608486031215612d64578081fd5b612d6d84612a7c565b95602085013595506040909401359392505050565b60008060408385031215612d94578182fd5b823567ffffffffffffffff80821115612dab578384fd5b818501915085601f830112612dbe578384fd5b81356020612dcb82613834565b604051612dd88282613934565b8381528281019150858301838502870184018b1015612df5578889fd5b8896505b84871015612e1e57612e0a81612a7c565b835260019690960195918301918301612df9565b5096505086013592505080821115612e34578283fd5b50612e4185828601612a93565b9150509250929050565b600060208284031215612e5c578081fd5b8151612b2481613a88565b600060208284031215612e78578081fd5b8135612b2481613a96565b600060208284031215612e94578081fd5b8151612b2481613a96565b600060208284031215612eb0578081fd5b813567ffffffffffffffff811115612ec6578182fd5b8201601f81018413612ed6578182fd5b6115ae84823560208401612a1e565b600060208284031215612ef6578081fd5b5035919050565b600060208284031215612f0e578081fd5b5051919050565b6000815180845260208085019450808401835b83811015612f4457815187529582019590820190600101612f28565b509495945050505050565b60008151808452612f678160208601602086016138c6565b601f01601f19169290920160200192915050565b60008151612f8d8185602086016138c6565b9290920192915050565b7f2e6a736f6e000000000000000000000000000000000000000000000000000000815260050190565b8254600090819060028104600180831680612fdc57607f831692505b6020808410821415612fff5760e060020a634e487b710287526022600452602487fd5b818015613013576001811461302457613050565b60ff19861689528489019650613050565b61302d8b613858565b885b868110156130485781548b82015290850190830161302f565b505084890196505b5050505050506130686130638286612f7b565b612f97565b95945050505050565b600160a060020a0391909116815260200190565b600160a060020a0392831681529116602082015260400190565b6000600160a060020a03808816835280871660208401525060a060408301526130cb60a0830186612f15565b82810360608401526130dd8186612f15565b905082810360808401526130f18185612f4f565b98975050505050505050565b600160a060020a039384168152919092166020820152604081019190915260600190565b6000600160a060020a03808816835280871660208401525084604083015283606083015260a0608083015261315960a0830184612f4f565b979650505050505050565b600160a060020a03929092168252602082015260400190565b60208082528251828201819052600091906040908185019080840286018301878501865b8381101561320057888303603f1901855281518051600160a060020a03168452878101518885015286810151878501526060908101516080918501829052906131ec81860183612f4f565b9689019694505050908601906001016131a1565b509098975050505050505050565b600060208252612b246020830184612f15565b6000604082526132346040830185612f15565b82810360208401526130688185612f15565b901515815260200190565b600060208252612b246020830184612f4f565b60208082526034908201527f455243313135353a207472616e7366657220746f206e6f6e204552433131353560408201527f526563656976657220696d706c656d656e746572000000000000000000000000606082015260800190565b60208082526028908201527f455243313135353a204552433131353552656365697665722072656a6563746560408201527f6420746f6b656e73000000000000000000000000000000000000000000000000606082015260800190565b60208082526039908201527f54686520736d61727420636f6e747261637420646f6573206e6f74206861766560408201527f2074686520616d6f756e7420796f752072657175657374656400000000000000606082015260800190565b6020808252602b908201527f455243313135353a2062616c616e636520717565727920666f7220746865207a60408201527f65726f2061646472657373000000000000000000000000000000000000000000606082015260800190565b60208082526026908201527f4f776e61626c653a206e6577206f776e657220697320746865207a65726f206160408201527f6464726573730000000000000000000000000000000000000000000000000000606082015260800190565b60208082526029908201527f455243313135353a2063616c6c6572206973206e6f74206f776e6572206e6f7260408201527f20617070726f7665640000000000000000000000000000000000000000000000606082015260800190565b60208082526017908201527f4e6f7420656e6f756768206f662046434720746f6b656e000000000000000000604082015260600190565b60208082526018908201527f63616e277420617070726f766520796f757220746f6b656e0000000000000000604082015260600190565b60208082526025908201527f455243313135353a207472616e7366657220746f20746865207a65726f20616460408201527f6472657373000000000000000000000000000000000000000000000000000000606082015260800190565b60208082526032908201527f455243313135353a207472616e736665722063616c6c6572206973206e6f742060408201527f6f776e6572206e6f7220617070726f7665640000000000000000000000000000606082015260800190565b6020808252602a908201527f455243313135353a20696e73756666696369656e742062616c616e636520666f60408201527f72207472616e7366657200000000000000000000000000000000000000000000606082015260800190565b6020808252818101527f4f776e61626c653a2063616c6c6572206973206e6f7420746865206f776e6572604082015260600190565b60208082526028908201527f455243313135353a206275726e20616d6f756e74206578636565647320746f7460408201527f616c537570706c79000000000000000000000000000000000000000000000000606082015260800190565b60208082526029908201527f455243313135353a2073657474696e6720617070726f76616c2073746174757360408201527f20666f722073656c660000000000000000000000000000000000000000000000606082015260800190565b60208082526029908201527f455243313135353a206163636f756e747320616e6420696473206c656e67746860408201527f206d69736d617463680000000000000000000000000000000000000000000000606082015260800190565b60208082526028908201527f455243313135353a2069647320616e6420616d6f756e7473206c656e6774682060408201527f6d69736d61746368000000000000000000000000000000000000000000000000606082015260800190565b60208082526021908201527f455243313135353a206d696e7420746f20746865207a65726f2061646472657360408201527f7300000000000000000000000000000000000000000000000000000000000000606082015260800190565b90815260200190565b918252602082015260400190565b600067ffffffffffffffff82111561384e5761384e6139c2565b5060209081020190565b60009081526020902090565b6000821982111561387757613877613990565b500190565b60008261388b5761388b6139a9565b500490565b60008160001904831182151516156138aa576138aa613990565b500290565b6000828210156138c1576138c1613990565b500390565b60005b838110156138e15781810151838201526020016138c9565b838111156138f0576000848401525b50505050565b60028104600182168061390a57607f821691505b6020821081141561392e5760e060020a634e487b7102600052602260045260246000fd5b50919050565b601f8201601f1916810167ffffffffffffffff8111828210171561395a5761395a6139c2565b6040525050565b600060001982141561397557613975613990565b5060010190565b60008261398b5761398b6139a9565b500690565b60e060020a634e487b7102600052601160045260246000fd5b60e060020a634e487b7102600052601260045260246000fd5b60e060020a634e487b7102600052604160045260246000fd5b600060033d1115610e8c57600481823e5160e060020a900490565b600060443d1015613a0657610e8c565b6040516003193d81016004833e81513d67ffffffffffffffff8160248401118184111715613a38575050505050610e8c565b8285019150815181811115613a5257505050505050610e8c565b843d8701016020828501011115613a6e57505050505050610e8c565b613a7d60208286010187613934565b509094505050505090565b80151581146113ee57600080fd5b600160e060020a0319811681146113ee57600080fdfea264697066735822122043c5b438271d7f2985beb164ff5533bb92f720198769c185b1d5033e41e58c0864736f6c63430008010033",
  "immutableReferences": {},
  "source": "// SPDX-License-Identifier: MIT\r\npragma solidity >=0.8.0;\r\n\r\nimport \"@openzeppelin/contracts/token/ERC1155/ERC1155.sol\";\r\nimport \"@openzeppelin/contracts/access/Ownable.sol\";\r\nimport \"@openzeppelin/contracts/token/ERC1155/extensions/ERC1155Supply.sol\";\r\nimport \"@openzeppelin/contracts/security/Pausable.sol\";\r\nimport \"@openzeppelin/contracts/utils/Strings.sol\";\r\nimport \"@openzeppelin/contracts/token/ERC20/ERC20.sol\";\r\n\r\n\r\n\r\n\r\n\r\n\r\n\r\ncontract FightClubGameNft is ERC1155Supply , Ownable{\r\n\r\n\r\n    uint256 private COST = 1000000000000000000  ;\r\n    mapping(uint256 => mapping(address => uint256)) private _balances;\r\n    uint256[] private charactersIds = [1,2,3,4,5,6,7,8,9];\r\n    mapping(uint256 => string) private tokensUri;\r\n\r\n    bool public flag = false;\r\n    string public baseUri;\r\n    IERC20 public FCG;\r\n    address tokenAddress;\r\n\r\n    struct Fighter{\r\n        address owner;\r\n        uint256 id;\r\n        uint256 amount;\r\n        string uri;\r\n    }\r\n\r\n    Fighter[] private fighters; \r\n    \r\n\r\n\r\n//address _tokenAddress\r\n    constructor(address _tokenAddress, string memory _baseUri) ERC1155(\"\") {\r\n        baseUri = _baseUri;\r\n        tokenAddress = _tokenAddress;\r\n        FCG = IERC20(address(_tokenAddress));\r\n    }\r\n    \r\n\r\n    function setURI(string memory newuri) public onlyOwner returns (bool) {\r\n        _setURI(newuri);\r\n        baseUri = newuri;\r\n        return true;\r\n    }\r\n\r\n    function uri(uint256 _tokenId) public view virtual override returns (string memory) {\r\n        return (string(abi.encodePacked(baseUri, Strings.toString(_tokenId),\".json\")));\r\n\r\n    }\r\n\r\n    function balanceOf(address account, uint256 id) public view virtual override returns (uint256) {\r\n        require(account != address(0), \"ERC1155: balance query for the zero address\");\r\n        return _balances[id][account];\r\n    }\r\n\r\n    function mintCharacter(address to, uint256 id, uint256 amount) public payable  returns(bool){\r\n        require(to != address(0), \"ERC1155: mint to the zero address\");\r\n        require(FCG.approve(address(this), amount * COST), \"can't approve your token\");\r\n        require(FCG.allowance(msg.sender, address(this)) >= COST, \"Not enough of FCG token\");//To ensure they will deposit the right amount\r\n        FCG.transferFrom(msg.sender, address(this), amount * COST);\r\n        _mintCharacter(to, id, amount);\r\n        _balances[id][to] +=amount;\r\n        return true;\r\n    }\r\n\r\n    function _mintCharacter(address to, uint256 id, uint256 amount) internal returns (bool) {\r\n        bool exists = false;\r\n        uint256 i = 0;\r\n        _mint(to, id, amount, \"\");\r\n        for( i = 0; i<fighters.length; i++){\r\n            if( fighters[i].owner == to ){\r\n                if( fighters[i].id == id ){\r\n                    exists = true;\r\n                    break;\r\n                }\r\n            }\r\n        }\r\n        if( exists == true) {\r\n                fighters[i].amount += amount;\r\n        } else {\r\n                string memory link = uri(id);\r\n                Fighter memory newFighter = Fighter(to,id,amount,link);\r\n                fighters.push(newFighter);\r\n        }\r\n\r\n        \r\n        return true;\r\n    }\r\n\r\n    function mintCharacterBatch(address to, uint256[] memory ids, uint256[] memory amounts) public payable returns(bool){\r\n        require(to != address(0), \"ERC1155: mint to the zero address\");\r\n        for(uint i=0; i<amounts.length ; i++){\r\n            require(FCG.approve(address(this), amounts[i] * COST), \"can't approve your token\");\r\n            require(FCG.allowance(msg.sender, address(this)) >= amounts[i] * COST, \"Not enough of FCG token\");//To ensure they will deposit the right amount\r\n            FCG.transferFrom(msg.sender, address(this), amounts[i] * COST);\r\n        }\r\n        _batchMintCharacter(to, ids, amounts);\r\n        return true;\r\n    }\r\n\r\n\r\n    function _batchMintCharacter(address to, uint256[] memory ids, uint256[] memory amounts) internal returns(bool){\r\n        bool exists = false;\r\n        uint256 i = 0;\r\n        uint256 j = 0;\r\n        string memory link = \"\";\r\n        _mintBatch(to, ids, amounts, \"\");\r\n        for( i = 0; i < ids.length; i++){\r\n            for( j = 0; j<fighters.length; j++){\r\n                if( fighters[j].owner == to){\r\n                    if(fighters[j].id == ids[i]){\r\n                        exists = true;\r\n                        break;\r\n                    }\r\n                }\r\n\r\n            }\r\n            if( exists == true ){\r\n                fighters[j].amount += amounts[i];\r\n            }else{\r\n                link = uri(ids[i]);\r\n                Fighter memory newFighter = Fighter(to,ids[i],amounts[i],link);\r\n                fighters.push(newFighter);\r\n            }\r\n        }\r\n        i=0;\r\n        for ( i = 0; i < ids.length; ++i){\r\n            link = uri(ids[i]);\r\n            _balances[ids[i]][to] +=amounts[i];\r\n            Fighter memory newFighter = Fighter(to, ids[i], amounts[i], link);\r\n            fighters.push(newFighter);\r\n        }\r\n        \r\n        return true;\r\n    }\r\n\r\n    function balanceOfBatch(address[] memory accounts, uint256[] memory ids) public view virtual override returns (uint256[] memory) {\r\n            require(accounts.length == ids.length, \"ERC1155: accounts and ids length mismatch\");\r\n            uint256[] memory batchBalances = new uint256[](accounts.length);\r\n            for (uint256 i = 0; i < accounts.length; ++i) {\r\n                batchBalances[i] = balanceOf(accounts[i], ids[i]);\r\n            }\r\n        return batchBalances;\r\n    }\r\n\r\n    function withdraw(uint256 _amount) external onlyOwner {\r\n        require(FCG.balanceOf(address(this)) >= _amount ,\"The smart contract does not have the amount you requested\");\r\n        FCG.transfer(msg.sender, _amount);\r\n    }\r\n\r\n    function getAllFighters() public view returns(Fighter[] memory){\r\n        return fighters;\r\n    }\r\n\r\n    function getOwnerFighters(address _owner) public view returns(Fighter[] memory){\r\n        uint256 balance = 0;\r\n        for(uint256 i=1; i<charactersIds.length ; i++){\r\n            if(balanceOf(_owner, i) > 0){\r\n                balance += 1;\r\n            }\r\n        }\r\n        Fighter[] memory result  = new Fighter[](balance);\r\n        uint256 counter = 0;\r\n        for(uint256 i=0 ; i < fighters.length ; i++){\r\n            if(fighters[i].owner == _owner){\r\n                result[counter] = fighters[i];\r\n                counter ++;\r\n            }\r\n        }\r\n        return result;\r\n    }\r\n\r\n\r\n\r\n\r\n}",
  "sourcePath": "C:\\Users\\PC GAMER\\PFE\\fight-club-game\\fight-club-game\\contracts\\FightClubGameNft.sol",
  "compiler": {
    "name": "solc",
    "version": "0.8.1+commit.df193b15.Linux.g++"
  },
  "schemaVersion": "3.4.7",
  "updatedAt": "2022-06-05T21:37:42.968Z",
  "networkType": "ethereum",
  "devdoc": {
    "kind": "dev",
    "methods": {
      "balanceOf(address,uint256)": {
        "details": "See {IERC1155-balanceOf}. Requirements: - `account` cannot be the zero address."
      },
      "balanceOfBatch(address[],uint256[])": {
        "details": "See {IERC1155-balanceOfBatch}. Requirements: - `accounts` and `ids` must have the same length."
      },
      "exists(uint256)": {
        "details": "Indicates whether any token exist with a given id, or not."
      },
      "isApprovedForAll(address,address)": {
        "details": "See {IERC1155-isApprovedForAll}."
      },
      "owner()": {
        "details": "Returns the address of the current owner."
      },
      "renounceOwnership()": {
        "details": "Leaves the contract without owner. It will not be possible to call `onlyOwner` functions anymore. Can only be called by the current owner. NOTE: Renouncing ownership will leave the contract without an owner, thereby removing any functionality that is only available to the owner."
      },
      "safeBatchTransferFrom(address,address,uint256[],uint256[],bytes)": {
        "details": "See {IERC1155-safeBatchTransferFrom}."
      },
      "safeTransferFrom(address,address,uint256,uint256,bytes)": {
        "details": "See {IERC1155-safeTransferFrom}."
      },
      "setApprovalForAll(address,bool)": {
        "details": "See {IERC1155-setApprovalForAll}."
      },
      "supportsInterface(bytes4)": {
        "details": "See {IERC165-supportsInterface}."
      },
      "totalSupply(uint256)": {
        "details": "Total amount of tokens in with a given id."
      },
      "transferOwnership(address)": {
        "details": "Transfers ownership of the contract to a new account (`newOwner`). Can only be called by the current owner."
      }
    },
    "version": 1
  },
  "userdoc": {
    "kind": "user",
    "methods": {},
    "version": 1
  }
}