{
  "contractName": "fightclubtoken",
  "abi": [
    {
      "inputs": [],
      "stateMutability": "nonpayable",
      "type": "constructor"
    },
    {
      "anonymous": false,
      "inputs": [
        {
          "indexed": true,
          "internalType": "address",
          "name": "owner",
          "type": "address"
        },
        {
          "indexed": true,
          "internalType": "address",
          "name": "spender",
          "type": "address"
        },
        {
          "indexed": false,
          "internalType": "uint256",
          "name": "value",
          "type": "uint256"
        }
      ],
      "name": "Approval",
      "type": "event"
    },
    {
      "anonymous": false,
      "inputs": [
        {
          "indexed": true,
          "internalType": "address",
          "name": "from",
          "type": "address"
        },
        {
          "indexed": true,
          "internalType": "address",
          "name": "to",
          "type": "address"
        },
        {
          "indexed": false,
          "internalType": "uint256",
          "name": "value",
          "type": "uint256"
        }
      ],
      "name": "Transfer",
      "type": "event"
    },
    {
      "inputs": [
        {
          "internalType": "address",
          "name": "",
          "type": "address"
        },
        {
          "internalType": "address",
          "name": "",
          "type": "address"
        }
      ],
      "name": "allowance",
      "outputs": [
        {
          "internalType": "uint256",
          "name": "",
          "type": "uint256"
        }
      ],
      "stateMutability": "view",
      "type": "function",
      "constant": true
    },
    {
      "inputs": [
        {
          "internalType": "address",
          "name": "",
          "type": "address"
        }
      ],
      "name": "balances",
      "outputs": [
        {
          "internalType": "uint256",
          "name": "",
          "type": "uint256"
        }
      ],
      "stateMutability": "view",
      "type": "function",
      "constant": true
    },
    {
      "inputs": [],
      "name": "decimals",
      "outputs": [
        {
          "internalType": "uint256",
          "name": "",
          "type": "uint256"
        }
      ],
      "stateMutability": "view",
      "type": "function",
      "constant": true
    },
    {
      "inputs": [],
      "name": "name",
      "outputs": [
        {
          "internalType": "string",
          "name": "",
          "type": "string"
        }
      ],
      "stateMutability": "view",
      "type": "function",
      "constant": true
    },
    {
      "inputs": [],
      "name": "symbol",
      "outputs": [
        {
          "internalType": "string",
          "name": "",
          "type": "string"
        }
      ],
      "stateMutability": "view",
      "type": "function",
      "constant": true
    },
    {
      "inputs": [],
      "name": "totalSupply",
      "outputs": [
        {
          "internalType": "uint256",
          "name": "",
          "type": "uint256"
        }
      ],
      "stateMutability": "view",
      "type": "function",
      "constant": true
    },
    {
      "inputs": [
        {
          "internalType": "address",
          "name": "owner",
          "type": "address"
        }
      ],
      "name": "balanceOf",
      "outputs": [
        {
          "internalType": "uint256",
          "name": "",
          "type": "uint256"
        }
      ],
      "stateMutability": "view",
      "type": "function",
      "constant": true
    },
    {
      "inputs": [
        {
          "internalType": "address",
          "name": "to",
          "type": "address"
        },
        {
          "internalType": "uint256",
          "name": "value",
          "type": "uint256"
        }
      ],
      "name": "transfer",
      "outputs": [
        {
          "internalType": "bool",
          "name": "",
          "type": "bool"
        }
      ],
      "stateMutability": "nonpayable",
      "type": "function"
    },
    {
      "inputs": [
        {
          "internalType": "address",
          "name": "from",
          "type": "address"
        },
        {
          "internalType": "address",
          "name": "to",
          "type": "address"
        },
        {
          "internalType": "uint256",
          "name": "value",
          "type": "uint256"
        }
      ],
      "name": "transferFrom",
      "outputs": [
        {
          "internalType": "bool",
          "name": "",
          "type": "bool"
        }
      ],
      "stateMutability": "nonpayable",
      "type": "function"
    },
    {
      "inputs": [
        {
          "internalType": "address",
          "name": "spender",
          "type": "address"
        },
        {
          "internalType": "uint256",
          "name": "value",
          "type": "uint256"
        }
      ],
      "name": "approve",
      "outputs": [
        {
          "internalType": "bool",
          "name": "",
          "type": "bool"
        }
      ],
      "stateMutability": "nonpayable",
      "type": "function"
    }
  ],
  "bytecode": "0x69d3c21bcecceda100000060025560c0604052601060808190527f466967687420436c756220546f6b656e0000000000000000000000000000000060a090815261004c91600391906100ba565b506040805180820190915260048082527f4643475400000000000000000000000000000000000000000000000000000000602090920191825261008f91816100ba565b5060126005553480156100a157600080fd5b50600254336000908152602081905260409020556101a7565b8280546100c690610153565b90600052602060002090601f0160209004810192826100e8576000855561012e565b82601f1061010157805160ff191683800117855561012e565b8280016001018555821561012e579182015b8281111561012e578251825591602001919060010190610113565b5061013a92915061013e565b5090565b5b8082111561013a576000815560010161013f565b60028104600182168061016757607f821691505b602082108114156101a1577f4e487b7100000000000000000000000000000000000000000000000000000000600052602260045260246000fd5b50919050565b610799806101b66000396000f3fe608060405234801561001057600080fd5b50600436106100bb576000357c010000000000000000000000000000000000000000000000000000000090048063313ce56711610083578063313ce5671461013957806370a082311461014157806395d89b4114610154578063a9059cbb1461015c578063dd62ed3e1461016f576100bb565b806306fdde03146100c0578063095ea7b3146100de57806318160ddd146100fe57806323b872dd1461011357806327e235e314610126575b600080fd5b6100c8610182565b6040516100d591906105e7565b60405180910390f35b6100f16100ec3660046105b3565b610210565b6040516100d591906105dc565b61010661027a565b6040516100d591906106a8565b6100f1610121366004610578565b610280565b610106610134366004610525565b6103db565b6101066103ed565b61010661014f366004610525565b6103f3565b6100c8610412565b6100f161016a3660046105b3565b61041f565b61010661017d366004610546565b6104f1565b6003805461018f906106e0565b80601f01602080910402602001604051908101604052809291908181526020018280546101bb906106e0565b80156102085780601f106101dd57610100808354040283529160200191610208565b820191906000526020600020905b8154815290600101906020018083116101eb57829003601f168201915b505050505081565b326000818152600160209081526040808320600160a060020a038716808552925280832085905551919290917f8c5be1e5ebec7d5bd14f71427d1e84f3dd0314c0f7b2291e5b200ac8c7c3b925906102699086906106a8565b60405180910390a350600192915050565b60025481565b60008161028c856103f3565b10156102cd576040517f08c379a00000000000000000000000000000000000000000000000000000000081526004016102c49061063a565b60405180910390fd5b600160a060020a038416600090815260016020908152604080832033845290915290205482111561032a576040517f08c379a00000000000000000000000000000000000000000000000000000000081526004016102c490610671565b600160a060020a038316600090815260208190526040812080548492906103529084906106b1565b9091555050600160a060020a0384166000908152602081905260408120805484929061037f9084906106c9565b9250508190555082600160a060020a031684600160a060020a03167fddf252ad1be2c89b69c2b068fc378daa952ba7f163c4a11628f55a4df523b3ef846040516103c991906106a8565b60405180910390a35060019392505050565b60006020819052908152604090205481565b60055481565b600160a060020a0381166000908152602081905260409020545b919050565b6004805461018f906106e0565b60008161042b336103f3565b1015610463576040517f08c379a00000000000000000000000000000000000000000000000000000000081526004016102c49061063a565b600160a060020a0383166000908152602081905260408120805484929061048b9084906106b1565b909155505033600090815260208190526040812080548492906104af9084906106c9565b9091555050604051600160a060020a0384169033907fddf252ad1be2c89b69c2b068fc378daa952ba7f163c4a11628f55a4df523b3ef906102699086906106a8565b600160209081526000928352604080842090915290825290205481565b8035600160a060020a038116811461040d57600080fd5b600060208284031215610536578081fd5b61053f8261050e565b9392505050565b60008060408385031215610558578081fd5b6105618361050e565b915061056f6020840161050e565b90509250929050565b60008060006060848603121561058c578081fd5b6105958461050e565b92506105a36020850161050e565b9150604084013590509250925092565b600080604083850312156105c5578182fd5b6105ce8361050e565b946020939093013593505050565b901515815260200190565b6000602080835283518082850152825b81811015610613578581018301518582016040015282016105f7565b818111156106245783604083870101525b50601f01601f1916929092016040019392505050565b6020808252600f908201527f62616c616e636520746f6f206c6f770000000000000000000000000000000000604082015260600190565b60208082526011908201527f616c6c6f77616e636520746f6f206c6f77000000000000000000000000000000604082015260600190565b90815260200190565b600082198211156106c4576106c4610734565b500190565b6000828210156106db576106db610734565b500390565b6002810460018216806106f457607f821691505b6020821081141561072e577f4e487b7100000000000000000000000000000000000000000000000000000000600052602260045260246000fd5b50919050565b7f4e487b7100000000000000000000000000000000000000000000000000000000600052601160045260246000fdfea2646970667358221220f7dbf09be83dbd90bb722a0cd5baafbd1918c1e1a85700aa5355cc241ecf17ca64736f6c63430008010033",
  "immutableReferences": {},
  "source": "// SPDX-License-Identifier: MIT\r\nimport \"@openzeppelin/contracts/token/ERC20/ERC20.sol\";\r\nimport \"@openzeppelin/contracts/access/Ownable.sol\";\r\n\r\npragma solidity >=0.8.0;\r\n\r\ncontract fightclubtoken {\r\n    mapping(address => uint) public balances;\r\n    mapping(address => mapping(address => uint))  public allowance;\r\n    uint  public totalSupply = 1000000 * 10 ** 18;\r\n    string public name = \"Fight Club Token\";\r\n    string public symbol = \"FCGT\";\r\n    uint public decimals = 18;\r\n    \r\n    event Transfer(address indexed from, address indexed to, uint value);\r\n    event Approval(address indexed owner, address indexed spender, uint value);\r\n    \r\n    constructor() {\r\n        balances[msg.sender] = totalSupply;\r\n    }\r\n    \r\n    function balanceOf(address owner) public  view returns(uint) {\r\n        return balances[owner];\r\n    }\r\n    \r\n    function transfer(address to, uint value) public  returns(bool) {\r\n        require(balanceOf(msg.sender) >= value, 'balance too low');\r\n        balances[to] += value;\r\n        balances[msg.sender] -= value;\r\n        emit Transfer(msg.sender, to, value);\r\n        return true;\r\n    }\r\n    \r\n    function transferFrom(address from, address to, uint value) public  returns(bool) {\r\n        require(balanceOf(from) >= value, 'balance too low');\r\n        require(allowance[from][msg.sender] >= value, 'allowance too low');\r\n        balances[to] += value;\r\n        balances[from] -= value;\r\n        emit Transfer(from, to, value);\r\n        return true;   \r\n    }\r\n    \r\n    function approve(address spender, uint value) public returns (bool) {\r\n        allowance[tx.origin][spender] = value;\r\n        emit Approval(tx.origin, spender, value);\r\n        return true;\r\n    }\r\n}",
  "sourcePath": "C:\\Users\\PC GAMER\\PFE\\fight-club-game\\fight-club-game\\contracts\\FightClubToken.sol",
  "compiler": {
    "name": "solc",
    "version": "0.8.1+commit.df193b15.Linux.g++"
  },
  "schemaVersion": "3.4.7",
  "updatedAt": "2022-06-05T21:37:42.957Z",
  "networkType": "ethereum",
  "devdoc": {
    "kind": "dev",
    "methods": {},
    "version": 1
  },
  "userdoc": {
    "kind": "user",
    "methods": {},
    "version": 1
  }
}